:020000020000FC
:100000000C9470010C94BF000C94C2000C94C500B9
:100010000C94C8000C94CB000C94CE000C94D1002E
:100020000C94D4000C94D7000C94DA000C94DD00EE
:100030000C946D010C940A010C940D010C941001A8
:100040000C94F8000C94FB000C94FE000C9401013D
:100050000C9404010C94EF000C94F2000C94F50045
:100060000C94E6000C9443010C9446010C94490155
:100070000C94B6000C94B9000C94BC000C941301C1
:100080000C9416010C9419010C941C010C941F0182
:100090000C944C010C944F010C9452010C944001AF
:1000A0000C94E9000C9422010C9425010C94280175
:1000B0000C942B010C942E010C9431010C943401FE
:1000C0000C9437010C943A010C943D010C945501A9
:1000D0000C9458010C945B010C945E010C9461012A
:1000E0000C9464011197F1F70895B7E2A0E10E9422
:1000F0007200B7E2A0E10E94720008950F93009190
:10010000B900087F011308C00F93009100020E7F11
:10011000009300020F9109C00213F1CF0F930091D9
:1001200000020160009300020F910F9108950F9358
:100130000091BC0007FFFCCF0F9108950F9304EAD4
:100140000093BC000E9497000F9108950F9304E85C
:100150000093BC000E9497000F9108950F9304E94B
:100160000093BC000E9475000F910895F894789454
:100170001895F89478941895F89478941895F894BC
:1001800078941895F89478941895F894789418952C
:10019000F89478941895F89478941895F89478943D
:1001A0001895F89478941895F89478941895F8948C
:1001B00078941895F89478941895F894789408950C
:1001C000F89478941895F89478941895F89478940D
:1001D0001895F89478941895F89478941895F8945C
:1001E00078941895F89478941895F89478941895CC
:1001F000F89478941895F89478941895F8947894DD
:100200001895F89478941895F89478941895F8942B
:1002100078941895F89478941895F894789418959B
:10022000F89478941895F89478941895F8947894AC
:100230001895F89478941895F89478941895F894FB
:1002400078941895F89478941895F894789418956B
:10025000F89478941895F89478941895F89478947C
:100260001895F89478941895F89478941895F894CB
:1002700078941895F89478941895F894789418953B
:10028000F89478941895F89478941895F89478944C
:100290001895F89478941895F89478941895F8949B
:1002A00078941895F89478941895F894789418950B
:1002B000F89478941895F89478941895F89478941C
:1002C0001895F89478941895F89478941895F8946B
:1002D00078941895F89478941895F89478941895DB
:1002E0000FEF0DBF01E20EBF0EE30093B80078944C
:0202F000FFCF3E
:00000001FF
