:020000020000FC
:100000000C949E010C94ED000C94F0000C94F30001
:100010000C94F6000C94F9000C94FC000C94FF0076
:100020000C9402010C9405010C9408010C940B0132
:100030000C949B010C9438010C943B010C943E01F0
:100040000C9426010C9429010C942C010C942F0182
:100050000C9432010C941D010C9420010C9423018A
:100060000C9414010C9471010C9474010C9477019C
:100070000C94E4000C94E7000C94EA000C94410109
:100080000C9444010C9447010C944A010C944D01CA
:100090000C947A010C947D010C9480010C946E01F7
:1000A0000C9417010C9450010C9453010C945601BC
:1000B0000C9459010C945C010C945F010C94620146
:1000C0000C9465010C9468010C946B010C948301F1
:1000D0000C9486010C9489010C948C010C948F0172
:1000E0000C9492011197F1F70895B7E2A0E10E94F4
:1000F0007200B7E2A0E10E94720008959091B900E9
:10010000987F981308C00F93009100020E7F009310
:1001100000020F9109C09713F1CF0F9300910002D5
:100120000160009300020F9108959091BC0097FF29
:10013000FCCF089594EA9093BC000E949500089526
:1001400094E89093BC000E949500089594E99093E0
:10015000BC000E947500089508959091000290FDE2
:100160000C94C300909101029093BB000E94A000E8
:1001700088E270E30E947E009091000290FD0C9452
:10018000C3000C94C5000E94AC000E94A600089514
:100190009091000290FD0C94DA000E94A0009091D2
:1001A000BB009093010294EC9093BC000E949500D8
:1001B0000C94E1000E94AC000F9300E00093010258
:1001C0000F910E94A6000895F89478941895F894D9
:1001D00078941895F89478941895F89478941895DC
:1001E000F89478941895F89478941895F8947894ED
:1001F0001895F89478941895F89478941895F8943C
:1002000078941895F89478941895F89478941895AB
:10021000F89478941895F89478940895F8947894CC
:100220001895F89478941895F89478941895F8940B
:1002300078941895F89478941895F894789418957B
:10024000F89478941895F89478941895F89478948C
:100250001895F89478941895F89478941895F894DB
:1002600078941895F89478941895F894789418954B
:10027000F89478941895F89478941895F89478945C
:100280001895F89478941895F89478941895F894AB
:1002900078941895F89478941895F894789418951B
:1002A000F89478941895F89478941895F89478942C
:1002B0001895F89478941895F89478941895F8947B
:1002C00078941895F89478941895F89478941895EB
:1002D000F89478941895F89478941895F8947894FC
:1002E0001895F89478941895F89478941895F8944B
:1002F00078941895F89478941895F89478941895BB
:10030000F89478941895F89478941895F8947894CB
:100310001895F89478941895F89478941895F8941A
:1003200078941895F89478941895F894789418958A
:10033000F89478941895F894789418950FEF0DBF69
:1003400001E20EBF9EE39093B80078940F9305E20C
:10035000009301020F910E949A0090E79093BB00D6
:100360000E94A00088E170E20E947E000E94AD0021
:100370000E949A0090E791609093BB000E94A000B9
:0E03800080E478E40E947E000E94C800FFCF57
:00000001FF
