:020000020000FC
:100000000C9473020C94C2010C94C5010C94C801A9
:100010000C94CB010C94CE010C94D1010C94D4011E
:100020000C94D7010C94DA010C94DD010C94E001DE
:100030000C9470020C940D020C9410020C94130298
:100040000C94FB010C94FE010C9401020C9404022C
:100050000C9407020C94F2010C94F5010C94F80135
:100060000C94E9010C9446020C9449020C944C0245
:100070000C94B9010C94BC010C94BF010C941602B1
:100080000C9419020C941C020C941F020C94220272
:100090000C944F020C9452020C9455020C9443029F
:1000A0000C94EC010C9425020C9428020C942B0265
:1000B0000C942E020C9431020C9434020C943702EE
:1000C0000C943A020C943D020C9440020C94580299
:1000D0000C945B020C945E020C9461020C9464021A
:1000E0000C9467021197F1F70895B7E2A0E10E941E
:1000F0007200B7E2A0E10E94720008959091B900E9
:10010000987F981306C0909100029E7F9093000202
:1001100007C09713F3CF9091000291609093000273
:1001200008959091BC0097FFFCCF089594EA9093B6
:10013000BC000E949100089594E89093BC000E9436
:100140009100089594E99093BC000E947500089571
:10015000B0E0A6E10E9472000895B0E0ABE50E9415
:1001600072000895B1E0A9EC0E9472000895B7E210
:10017000A0E10E947200B7E2A0E10E94720008951F
:10018000BCE9A0E40E947200BCE9A0E40E947200F5
:10019000089590E2986090930102089598E0946029
:1001A0009260916090930202089594E0926090931F
:1001B0000302089590E194609093040208950E94D0
:1001C000C0000E94960090E79093BB000E949C00A4
:1001D00088E170E20E947E0090E30E9424010E9468
:1001E000B70090E30E9424010E94B20090E30E94B5
:1001F000240190E20E9424010E9459019091010281
:100200000E941F010E945901909102020E94B200B7
:100210000E941F010E94590191E00E94B2000E94B9
:100220001F010E945901909103020E94B2000E9496
:100230001F0190B30E941F010E94A20008950E9416
:1002400024010E943F0108959F93907F9F939460A3
:1002500098609093BB000E949C0088E270E30E942B
:100260007E009F9198600E94A8009093BB000E941E
:100270009C0088E270E30E947E009F910895929511
:10028000907F9F93946098609093BB000E949C0025
:1002900088E270E30E947E009F9198600E94A8000F
:1002A0009093BB000E949C0088E270E30E947E0055
:1002B00008959F938F939AEF9093BB000E949C00A8
:1002C00088E270E30E947E000E94A2000E949600D5
:1002D00090E791609093BB000E949C0080E478E4DA
:1002E0000E947E008091BB0087FD0C9472010E94E9
:1002F000A2000E94960090E79093BB000E949C0091
:1003000088E170E20E947E0098E09093BB000E941A
:100310009C0088E270E30E947E008F919F91089577
:10032000813031F0823039F0833041F0843049F04F
:100330008FE7980F08C08FEB980F05C083E9980FDF
:1003400002C083ED980F892F8058809306029F93F7
:100350000E94960090E79093BB000E949C0088E169
:1003600070E20E947E009F910E941F010E94A200E5
:100370000895F89478941895F89478941895F894CA
:1003800078941895F89478941895F894789418952A
:10039000F89478941895F89478941895F89478943B
:1003A0001895F89478941895F89478941895F8948A
:1003B00078941895F89478941895F89478941895FA
:1003C000F89478940895F89478941895F89478941B
:1003D0001895F89478941895F89478941895F8945A
:1003E00078941895F89478941895F89478941895CA
:1003F000F89478941895F89478941895F8947894DB
:100400001895F89478941895F89478941895F89429
:1004100078941895F89478941895F8947894189599
:10042000F89478941895F89478941895F8947894AA
:100430001895F89478941895F89478941895F894F9
:1004400078941895F89478941895F8947894189569
:10045000F89478941895F89478941895F89478947A
:100460001895F89478941895F89478941895F894C9
:1004700078941895F89478941895F8947894189539
:10048000F89478941895F89478941895F89478944A
:100490001895F89478941895F89478941895F89499
:1004A00078941895F89478941895F8947894189509
:1004B000F89478941895F89478941895F89478941A
:1004C0001895F89478941895F89478941895F89469
:1004D00078941895F89478941895F89478941895D9
:1004E000F894789418950FEF0DBF01E20EBF9EE3CC
:1004F0009093B80078940E94C9000E94CE000E9498
:10050000D5000E94DA000E94DF0083E091E00E94A3
:040510009001FFCF88
:00000001FF
