:020000020000FC
:100000000C94C3020C9412020C9415020C94180266
:100010000C941B020C941E020C9421020C942402DA
:100020000C9427020C942A020C942D020C9430029A
:100030000C94C0020C945D020C9460020C94630258
:100040000C944B020C944E020C9451020C945402EA
:100050000C9457020C9442020C9445020C944802F2
:100060000C9439020C9496020C9499020C949C0204
:100070000C9409020C940C020C940F020C9466026E
:100080000C9469020C946C020C946F020C94720232
:100090000C949F020C94A2020C94A5020C9493025F
:1000A0000C943C020C9475020C9478020C947B0224
:1000B0000C947E020C9481020C9484020C948702AE
:1000C0000C948A020C948D020C9490020C94A80259
:1000D0000C94AB020C94AE020C94B1020C94B402DA
:1000E0000C94B7021197F1F70895B7E2A0E10E94CE
:1000F0007200B7E2A0E10E94720008959091B900E9
:10010000987F981306C0909100029E7F9093000202
:1001100007C09713F3CF9091000291609093000273
:1001200008959091BC0097FFFCCF089594EA9093B6
:10013000BC000E949100089594E89093BC000E9436
:100140009100089594E99093BC000E947500089571
:10015000B0E0A6E10E9472000895B0E0ABE50E9415
:1001600072000895B1E0A9EC0E9472000895B7E210
:10017000A0E10E947200B7E2A0E10E94720008951F
:10018000BCE9A0E40E947200BCE9A0E40E947200F5
:1001900008950F9339980F910F933A980F910F93F9
:1001A0003B980F910F933C980F910F933D980F91AF
:1001B0000F933E980F910F933F980F910F93549880
:1001C0000F915D985F9A5E9A0E94A8004C9B04C0B4
:1001D0005E980E94A800F7CF5E985F980F93399AB7
:1001E0000F910F933A9A0F910F933B9A0F910F93A0
:1001F0003C9A0F910F933D9A0F910F933E9A0F9156
:100200000F933F9A0F910F93549A0F9108955D9811
:100210000E940D010E94C90008955F9807FF5C9835
:1002200007FD5C9A06FF479806FD479A05FF46982A
:1002300005FD469A04FF459804FD459A03FF44983E
:1002400003FD449A02FF439802FD439A01FF42983E
:1002500001FD429A00FF419800FD419A5E9A0E947A
:10026000A8005E9808955D9A0E940D010E94AD005D
:100270000E94AD0008955D980E940D0108950F93AE
:10028000399A0F910F933A9A0F910F933B9A0F91CE
:100290000F933C9A0F910F933D9A0F910F933E9AB3
:1002A0000F910F933F9A0F910F93549A0F910F93C1
:1002B000559A0F910F93579A0F910F93569A0F914A
:1002C0000E94C00000E30E943B010E94B70000E3CF
:1002D0000E943B010E94B20000E30E943B010E9489
:1002E000C900009101020F93002F0E9407010F9196
:1002F000009102020F93002F0E9407010F9101E06D
:100300000F93002F0E9407010F91009103020F939A
:10031000002F0E9407010F91009110000F93002FF2
:100320000E9407010F910895113031F0123039F019
:10033000133041F0143049F01FE7010F08C01FEBE4
:10034000010F05C013E9010F02C013ED010F102FBB
:100350001058109306020F93002F0E9407010F916F
:1003600008953F93309106023395343151F40F9341
:100370001F9312E001E00E9494011F910F913F91A1
:100380000895343551F40F931F9313E001E00E9458
:1003900094011F910F913F910895383251F40F93BA
:1003A0001F9314E001E00E9494011F910F913F916F
:1003B0000895383651F40F931F9311E001E00E9425
:1003C00094011F910F913F910895309306023F9140
:1003D00008951F930F93159105910F93002F0E947D
:1003E00033010F910E94B1011A95B1F70F911F913E
:1003F00008951F930F93119101910F93002F0E9465
:1004000033010F910E94B1011A95B1F70F911F911D
:100410000895F89478941895F89478941895F89429
:1004200078941895F89478941895F8947894189589
:10043000F89478941895F89478941895F89478949A
:100440001895F89478941895F89478941895F894E9
:1004500078941895F89478941895F8947894189559
:10046000F89478940895F89478941895F89478947A
:100470001895F89478941895F89478941895F894B9
:1004800078941895F89478941895F8947894189529
:10049000F89478941895F89478941895F89478943A
:1004A0001895F89478941895F89478941895F89489
:1004B00078941895F89478941895F89478941895F9
:1004C000F89478941895F89478941895F89478940A
:1004D0001895F89478941895F89478941895F89459
:1004E00078941895F89478941895F89478941895C9
:1004F000F89478941895F89478941895F8947894DA
:100500001895F89478941895F89478941895F89428
:1005100078941895F89478941895F8947894189598
:10052000F89478941895F89478941895F8947894A9
:100530001895F89478941895F89478941895F894F8
:1005400078941895F89478941895F8947894189568
:10055000F89478941895F89478941895F894789479
:100560001895F89478941895F89478941895F894C8
:1005700078941895F89478941895F8947894189538
:10058000F894789418950FEF0DBF01E20EBF9EE32B
:100590009093B80000E2006108600093010208E057
:1005A0000460026001600093020204E002600093B4
:1005B000030200E10460009304020E943F0178946A
:0205C000FFCF6B
:00000001FF
