:020000020000FC
:100000000C9456030C94A5020C94A8020C94AB0219
:100010000C94AE020C94B1020C94B4020C94B7028E
:100020000C94BA020C94BD020C94C0020C94C3024E
:100030000C9453030C94F0020C94F3020C94F6020B
:100040000C94DE020C94E1020C94E4020C94E7029E
:100050000C94EA020C94D5020C94D8020C94DB02A6
:100060000C94CC020C9429030C942C030C942F03B5
:100070000C949C020C949F020C94A2020C94F90222
:100080000C94FC020C94FF020C9402030C940503E4
:100090000C9432030C9435030C9438030C9426030F
:1000A0000C94CF020C9408030C940B030C940E03D5
:1000B0000C9411030C9414030C9417030C941A035E
:1000C0000C941D030C9420030C9423030C943B0309
:1000D0000C943E030C9441030C9444030C9447038A
:1000E0000C944A031197F1F70895BF93AF93B7E2C9
:1000F000A0E10E947200B7E2A0E10E947200AF91FD
:10010000BF9108959F939091B900987F981308C06C
:100110000F93009100020E7F009300020F9109C01F
:100120009713F1CF0F93009100020160009300023A
:100130000F919F9108959F939091BC0097FFFCCFE2
:100140009F9108959F9394EA9093BC000E949B0016
:100150009F9108959F9394E89093BC000E949B0008
:100160009F9108959F9394E99093BC000E9475001D
:100170009F910895B0E0A6E10E9472000895B0E05A
:10018000ABE50E9472000895B1E0A9EC0E947200F4
:100190000895B7E2A0E10E947200B7E2A0E10E94D8
:1001A00072000895BCE9A0E40E947200BCE9A0E4DA
:1001B0000E94720008959F930E94D2000E94A200A4
:1001C0009F9390E79093BB000E94AA008F937F9328
:1001D00088E170E20E9482007F918F919F9190E36D
:1001E0000E94EF010E94C90090E30E94EF010E946B
:1001F000C40090E30E94EF0190E20E94EF010E9490
:100200004701909101020E94EF010E9412020E9498
:100210004701909102020E94C4000E94EF010E94D7
:1002200012020E94470191E00E94C4000E94EF0167
:100230000E9412020E944701909103020E94C40092
:100240000E94EF010E94120290B30E94EF010E94EF
:1002500012020E94B2009F9108959F930E94A200F3
:100260009F9390E79093BB000E94AA008F937F9387
:1002700088E170E20E9482007F918F919F910E949D
:10028000EF010E9412020E94B2009F9108959F9375
:100290009AEF9093BB000E94AA008F937F9388E20D
:1002A00070E30E9482007F918F910E94B2000E94B1
:1002B000A2009F9390E791609093BB000E94AA00D8
:1002C0008F937F9380E478E40E9482007F918F91E6
:1002D0009F919091BB0097FD0C9469010E94B20020
:1002E0000E94A2009F9390E79093BB000E94AA00F7
:1002F0008F937F9388E170E20E9482007F918F91BB
:100300009F9198E09093BB000E94AA008F937F93E7
:1003100088E270E30E9482007F918F919F910895FF
:100320009F930E94A2009F9390E79093BB000E942E
:10033000AA008F937F9388E170E20E9482007F91F0
:100340008F919F910E94AA010E94CD010E94B2004C
:100350009F9108959F93907F9F9391609460986080
:100360009093BB000E94AA008F937F9388E270E372
:100370000E9482007F918F919F91916098609093ED
:10038000BB000E94AA008F937F9388E270E30E94D3
:1003900082007F918F919F9108959295907F9F9376
:1003A0009160946098609093BB000E94AA008F9324
:1003B0007F9388E270E30E9482007F918F919F91EA
:1003C000916098609093BB000E94AA008F937F93E6
:1003D00088E270E30E9482007F918F9108959F933D
:1003E000907F9F93946098609093BB000E94AA00B6
:1003F0008F937F9388E270E30E9482007F918F91B8
:100400009F9198600E94BA009093BB000E94AA003E
:100410008F937F9388E270E30E9482007F918F9197
:100420009F9108959295907F9F9394609860909388
:10043000BB000E94AA008F937F9388E270E30E9422
:1004400082007F918F919F9198600E94BA00909353
:10045000BB000E94AA008F937F9388E270E30E9402
:1004600082007F918F910895813031F0823039F090
:10047000833041F0843049F08FE7980F08C08FEB4C
:10048000980F05C083E9980F02C083ED980F892F5C
:100490008058809306020E942D0108956F939F93C8
:1004A000659195910E9490010E9468026A95C9F732
:1004B0009F916F9108956F939F93619191910E9485
:1004C00090010E9468026A95C9F79F916F91089503
:1004D0009F93909106029395943149F49F938F9343
:1004E00082E091E00E9434028F919F9108959435AB
:1004F00049F49F938F9383E091E00E9434028F919F
:100500009F910895983249F49F938F9384E091E0EE
:100510000E9434028F919F910895983649F49F93D9
:100520008F9381E091E00E9434028F919F91089512
:10053000909306029F910895F89478941895F894F2
:1005400078941895F89478941895F8947894189568
:10055000F89478941895F89478941895F894789479
:100560001895F89478941895F89478941895F894C8
:1005700078941895F89478941895F8947894189538
:10058000F89478941895F89478940895F894789459
:100590001895F89478941895F89478941895F89498
:1005A00078941895F89478941895F8947894189508
:1005B000F89478941895F89478941895F894789419
:1005C0001895F89478941895F89478941895F89468
:1005D00078941895F89478941895F89478941895D8
:1005E000F89478941895F89478941895F8947894E9
:1005F0001895F89478941895F89478941895F89438
:1006000078941895F89478941895F89478941895A7
:10061000F89478941895F89478941895F8947894B8
:100620001895F89478941895F89478941895F89407
:1006300078941895F89478941895F8947894189577
:10064000F89478941895F89478941895F894789488
:100650001895F89478941895F89478941895F894D7
:1006600078941895F89478941895F8947894189547
:10067000F89478941895F89478941895F894789458
:100680001895F89478941895F89478941895F894A7
:1006900078941895F89478941895F8947894189517
:1006A000F89478941895F894789418950FEF0DBFF6
:1006B00001E20EBF9F939EE39093B8009F917894C0
:1006C0009F9390E298609093010298E0946092600A
:1006D00091609093020294E092609093030290E103
:1006E0009460909304020E94DB009F91FFCF03B1BE
:1006F00002FD0C947E030C947F03089508950895E1
:00000001FF
