:020000020000FC
:100000000C9491020C94E0010C94E3010C94E60131
:100010000C94E9010C94EC010C94EF010C94F201A6
:100020000C94F5010C94F8010C94FB010C94FE0166
:100030000C948E020C942B020C942E020C94310220
:100040000C9419020C941C020C941F020C942202B2
:100050000C9425020C9410020C9413020C941602BA
:100060000C9407020C9464020C9467020C946A02CC
:100070000C94D7010C94DA010C94DD010C94340239
:100080000C9437020C943A020C943D020C944002FA
:100090000C946D020C9470020C9473020C94610227
:1000A0000C940A020C9443020C9446020C944902EC
:1000B0000C944C020C944F020C9452020C94550276
:1000C0000C9458020C945B020C945E020C94760221
:1000D0000C9479020C947C020C947F020C948202A2
:1000E0000C9485021197F1F70895BF93AF93B7E28F
:1000F000A0E10E947200B7E2A0E10E947200AF91FD
:10010000BF9108959F939091B900987F981308C06C
:100110000F93009100020E7F009300020F9109C01F
:100120009713F1CF0F93009100020160009300023A
:100130000F919F9108959F939091BC0097FFFCCFE2
:100140009F9108959F9394EA9093BC000E949B0016
:100150009F9108959F9394E89093BC000E949B0008
:100160009F9108959F9394E99093BC000E9475001D
:100170009F910895B0E0A6E10E9472000895B0E05A
:10018000ABE50E9472000895B1E0A9EC0E947200F4
:100190000895B7E2A0E10E947200B7E2A0E10E94D8
:1001A00072000895BCE9A0E40E947200BCE9A0E4DA
:1001B0000E94720008959F930F93399A0F910F93A5
:1001C0003A9A0F910F933B9A0F910F933C9A0F918C
:1001D0000F933D9A0F910F933E9A0F910F933F9A71
:1001E0000F910F93549A0F910F93559A0F910F936C
:1001F000579A0F910F93569A0F910E94D20090E355
:100200005D980E9449010E94C90090E35D980E9498
:1002100049010E94C40090E35D980E9449010E9438
:100220002B01909101020E942501909102020E94EF
:10023000250191E00E942501909103020E94250171
:1002400090B30E9425019F9108955D980E944901F5
:100250000E942B0108950F9354980F915D985F9A17
:100260005E9A0E94BA004C9B0C943B015E980E94DF
:10027000BA000C9430015E985F980F93549A0F91D6
:1002800008955D9A0E9449010E94BF000E94BF002C
:1002900008955F9897FF5C9897FD5C9A96FF479842
:1002A00096FD479A95FF469895FD469A94FF459886
:1002B00094FD459A93FF449893FD449A92FF439886
:1002C00092FD439A91FF429891FD429A90FF419886
:1002D00090FD419A5E9A0E94BA005E98089571302E
:1002E00031F0723039F0733041F0743049F07FE70B
:1002F000970F08C07FEB970F05C073E9970F02C0F7
:1003000073ED970F792F7058709306020E942501A4
:1003100008956F939F93659195910E9441010E946A
:10032000A3016A95C9F79F916F9108956F939F9369
:10033000619191910E9441010E94A3016A95C9F7C0
:100340009F916F9108959F93909106029395943198
:1003500049F49F937F9372E091E00E946F017F9137
:100360009F910895943549F49F937F9373E091E0B2
:100370000E946F017F919F910895983249F49F9355
:100380007F9374E091E00E946F017F919F910895A7
:10039000983649F49F937F9371E091E00E946F013A
:1003A0007F919F910895909306029F910895F894EC
:1003B00078941895F89478941895F89478941895FA
:1003C000F89478941895F89478941895F89478940B
:1003D0001895F89478941895F89478941895F8945A
:1003E00078941895F89478941895F89478941895CA
:1003F000F89478941895F89478941895F8947894DB
:100400000895F89478941895F89478941895F89439
:1004100078941895F89478941895F8947894189599
:10042000F89478941895F89478941895F8947894AA
:100430001895F89478941895F89478941895F894F9
:1004400078941895F89478941895F8947894189569
:10045000F89478941895F89478941895F89478947A
:100460001895F89478941895F89478941895F894C9
:1004700078941895F89478941895F8947894189539
:10048000F89478941895F89478941895F89478944A
:100490001895F89478941895F89478941895F89499
:1004A00078941895F89478941895F8947894189509
:1004B000F89478941895F89478941895F89478941A
:1004C0001895F89478941895F89478941895F89469
:1004D00078941895F89478941895F89478941895D9
:1004E000F89478941895F89478941895F8947894EA
:1004F0001895F89478941895F89478941895F89439
:1005000078941895F89478941895F89478941895A8
:10051000F89478941895F89478941895F8947894B9
:1005200018950FEF0DBF01E20EBF9F939EE39093CE
:10053000B8009F9178949F938F9390E29061986018
:100540009093010298E0946092609160909302020F
:1005500094E092609093030290E19460909304027F
:100560000E94DB008F919F918F939F937F9372E006
:1005700096E00E946F017F919F918F919F938F933F
:1005800096E70E9441010E94A3018F919F9183E30E
:100590009F938F93982F0E9441010E94A3018F91F6
:1005A0009F91056464206464FF93EF938F93F5E05B
:1005B000E2EA0E9489018F91EF91FF919F938F93BF
:1005C000909103029160909303020E9425018F9104
:1005D0009F919F938F93909103029D7F909303022D
:1005E0000E9425018F919F910F9303E000930702D2
:1005F0000F910F9300E7009308020F910F9300E60D
:10060000009309020F910F9300E500930A020F91E6
:10061000FF93EF938F93F2E0E7E00E9496018F91B2
:10062000EF91FF910F935B980F91FFCF03B102FD04
:0E0630000C941D030C941E0308950895089564
:00000001FF
