:020000020000FC
:100000000C9476010C94AE000C94B1000C94B400E6
:100010000C94B7000C94BA000C94BD000C94D7005B
:100020000C94DA000C94DD000C94E0000C94E300D6
:100030000C9473010C9410010C9413010C94160190
:100040000C94FE000C9401010C9404010C94070123
:100050000C940A010C94F5000C94F8000C94FB002D
:100060000C94EC000C9449010C944C010C944F013D
:100070000C94A5000C94A8000C94AB000C941901EE
:100080000C941C010C941F010C9422010C9425016A
:100090000C9452010C9455010C9458010C94460197
:1000A0000C94EF000C9428010C942B010C942E015D
:1000B0000C9431010C9434010C9437010C943A01E6
:1000C0000C943D010C9440010C9443010C945B0191
:1000D0000C945E010C9461010C9464010C94670112
:1000E0000C946A011197F1F70895B7E2A0E10E941C
:1000F0007200B7E2A0E10E94720008950F93009190
:10010000B900087F0113FBCF0F9108950F93009161
:10011000BC0007FFFCCF0F9108950F9304EA0093F2
:10012000BC000E9486000F9108950093BB0004E874
:100130000093BC000E94860008950F9304E9009389
:10014000BC000E9475000F910895F894789418955A
:10015000F89478941895F89478941895F89478947D
:100160001895F89478941895F89478941895F894CC
:1001700078941895F89478941895F8940F930E94B1
:100180008D000F9300E401600E9495001F9310E41E
:100190000E947E001F910F912091BB003091BB0007
:1001A0000E9497000E949D000F9178941895F894F2
:1001B00078941895F89478941895F89478941895FC
:1001C000F89478941895F89478940895F89478941D
:1001D0001895F89478941895F89478941895F8945C
:1001E00078941895F89478941895F89478941895CC
:1001F000F89478941895F89478941895F8947894DD
:100200001895F89478941895F89478941895F8942B
:1002100078941895F89478941895F894789418959B
:10022000F89478941895F89478941895F8947894AC
:100230001895F89478941895F89478941895F894FB
:1002400078941895F89478941895F894789418956B
:10025000F89478941895F89478941895F89478947C
:100260001895F89478941895F89478941895F894CB
:1002700078941895F89478941895F894789418953B
:10028000F89478941895F89478941895F89478944C
:100290001895F89478941895F89478941895F8949B
:1002A00078941895F89478941895F894789418950B
:1002B000F89478941895F89478941895F89478941C
:1002C0001895F89478941895F89478941895F8946B
:1002D00078941895F89478941895F89478941895DB
:1002E000F89478941895F894789418950FEF0DBFBA
:1002F00001E20EBF0EE30093B8000027112722276A
:10030000006224601093690020936A000DBB009383
:100310006800789408E000930002039500930102BE
:100320000F930E948D000F9300E40E9495001F938D
:1003300018E10E947E001F910F91009100020F931F
:10034000002F0E9495001F9318E20E947E001F91CB
:100350000F91009101020F93002F0E9495001F93AF
:1003600018E20E947E001F910F910E949D000F9144
:1003700002E0009300020395009301020F930E9494
:100380008D000F9302E40E9495001F9318E10E94D4
:100390007E001F910F91009100020F93002F0E9489
:1003A00095001F9318E20E947E001F910F9100910B
:1003B00001020F93002F0E9495001F9318E20E94E4
:0E03C0007E001F910F910E949D000F91FFCFB4
:00000001FF
