:020000020000FC
:100000000C9446020C9495010C9498010C949B015D
:100010000C949E010C94A1010C94A4010C94A701D2
:100020000C94AA010C94AD010C94B0010C94B30192
:100030000C9443020C94E0010C94E3010C94E6014F
:100040000C94CE010C94D1010C94D4010C94D701E2
:100050000C94DA010C94C5010C94C8010C94CB01EA
:100060000C94BC010C9419020C941C020C941F02F9
:100070000C948C010C948F010C9492010C94E90166
:100080000C94EC010C94EF010C94F2010C94F5012A
:100090000C9422020C9425020C9428020C94160253
:1000A0000C94BF010C94F8010C94FB010C94FE011C
:1000B0000C9401020C9404020C9407020C940A02A2
:1000C0000C940D020C9410020C9413020C942B024D
:1000D0000C942E020C9431020C9434020C943702CE
:1000E0000C943A021197F1F70895B7E2A0E10E944B
:1000F0007200B7E2A0E10E94720008959091B900E9
:10010000987F981306C0909100029E7F9093000202
:1001100007C09713F3CF9091000291609093000273
:1001200008959091BC0097FFFCCF089594EA9093B6
:10013000BC000E949100089594E89093BC000E9436
:100140009100089594E99093BC000E947500089571
:10015000B0E0A6E10E9472000895B0E0ABE50E9415
:1001600072000895B1E0A9EC0E9472000895B7E210
:10017000A0E10E947200B7E2A0E10E94720008951F
:10018000BCE9A0E40E947200BCE9A0E40E947200F5
:10019000089590E2986090930102089598E0946029
:1001A0009260916090930202089594E0926090931F
:1001B0000302089590E194609093040208950E94D0
:1001C000C0000E94960090E79093BB000E949C00A4
:1001D00088E170E20E947E0090E30E9424010E9468
:1001E000B70090E30E9424010E94B20090E30E94B5
:1001F000240190E20E9424010E9455019091010285
:100200000E941F010E945501909102020E94B200BB
:100210000E941F010E94550191E00E94B2000E94BD
:100220001F010E945501909103020E94B2000E949A
:100230001F0190B30E941F010E94A20008950E9416
:1002400024010E943D0108959F93907F9F939460A5
:1002500098609093BB000E949C0088E270E30E942B
:100260007E009F9198609093BB000E949C0088E262
:1002700070E30E947E009F9108959295907F9F93D6
:10028000946098609093BB000E949C0088E270E3A9
:100290000E947E009F9198609093BB000E949C00FA
:1002A00088E270E30E947E0008959F938F939AEFF7
:1002B0009093BB000E949C0088E270E30E947E0045
:1002C0000E94A2000E94960090E791609093BB006C
:1002D0000E949C0080E478E40E947E008091BB0034
:1002E00087FD0C946E010E94A2000E94960090E788
:1002F0009093BB000E949C0088E170E20E947E0007
:1003000098E09093BB000E949C0088E270E30E94FA
:100310007E008F919F910895F89478941895F894A1
:1003200078941895F89478941895F894789418958A
:10033000F89478941895F89478941895F89478949B
:100340001895F89478941895F89478941895F894EA
:1003500078941895F89478941895F894789418955A
:10036000F89478941895F89478940895F89478947B
:100370001895F89478941895F89478941895F894BA
:1003800078941895F89478941895F894789418952A
:10039000F89478941895F89478941895F89478943B
:1003A0001895F89478941895F89478941895F8948A
:1003B00078941895F89478941895F89478941895FA
:1003C000F89478941895F89478941895F89478940B
:1003D0001895F89478941895F89478941895F8945A
:1003E00078941895F89478941895F89478941895CA
:1003F000F89478941895F89478941895F8947894DB
:100400001895F89478941895F89478941895F89429
:1004100078941895F89478941895F8947894189599
:10042000F89478941895F89478941895F8947894AA
:100430001895F89478941895F89478941895F894F9
:1004400078941895F89478941895F8947894189569
:10045000F89478941895F89478941895F89478947A
:100460001895F89478941895F89478941895F894C9
:1004700078941895F89478941895F8947894189539
:10048000F89478941895F894789418950FEF0DBF18
:1004900001E20EBF9EE39093B8000E94C9000E9443
:1004A000CE000E94D5000E94DA000E94DF007894FE
:0204B000FFCF7C
:00000001FF
