:020000020000FC
:100000000C9440010C948F000C9492000C94950079
:100010000C9498000C949B000C949E000C94A100EE
:100020000C94A4000C94A7000C94AA000C94AD00AE
:100030000C943D010C94DA000C94DD000C94E0006B
:100040000C94C8000C94CB000C94CE000C94D100FE
:100050000C94D4000C94BF000C94C2000C94C50006
:100060000C94B6000C9413010C9416010C94190115
:100070000C9484000C9487000C948C000C94E30086
:100080000C94E6000C94E9000C94EC000C94EF0046
:100090000C941C010C941F010C9422010C9410016F
:1000A0000C94B9000C94F2000C94F5000C94F80038
:1000B0000C94FB000C94FE000C9401010C940401C0
:1000C0000C9407010C940A010C940D010C94250169
:1000D0000C9428010C942B010C942E010C943101EA
:1000E0000C9434011197F1F708950F9300917A0061
:1000F000006800937A000F910F9300917A000064DA
:1001000000937A000F910895F89478941895F894D4
:100110000E94660378941895F89478941895F8944A
:1001200078941895F89478941895F894789418958C
:10013000F89478941895F89478941895F89478949D
:100140001895F89478941895F89478941895F894EC
:1001500078941895F89478941895F894789408956C
:10016000F89478941895F89478941895F89478946D
:100170001895F89478941895F89478941895F894BC
:1001800078941895F89478941895F894789418952C
:10019000F89478941895F89478941895F89478943D
:1001A0001895F89478941895F89478941895F8948C
:1001B00078941895F89478941895F89478941895FC
:1001C000F89478941895F89478941895F89478940D
:1001D0001895F89478941895F89478941895F8945C
:1001E00078941895F89478941895F89478941895CC
:1001F000F89478941895F89478941895F8947894DD
:100200001895F89478941895F89478941895F8942B
:1002100078941895F89478941895F894789418959B
:10022000F89478941895F89478941895F8947894AC
:100230001895F89478941895F89478941895F894FB
:1002400078941895F89478941895F894789418956B
:10025000F89478941895F89478941895F89478947C
:100260001895F89478941895F89478941895F894CB
:1002700078941895F89478941895F894789418953B
:100280000FEF0DBF01E20EBF0F9300917A000160E6
:1002900000937A000F910F9300917A00026000930F
:1002A0007A000F910F9300917A00046000937A0016
:1002B0000F910F9300917C00006400937C000F91DC
:1002C0000F9300917C000F7700937C000F910F93A8
:1002D00000917C00006200937C000F910F930091CD
:1002E0007C000E7F00937C000F910F9300917C00A7
:1002F0000D7F00937C000F910F9300917C000B7F8A
:1003000000937C000F910F9300917C00077F009376
:100310007C000F910F9300917C000F7E00937C0076
:100320000F910F9300917B00077F00937B000F914B
:100330000F9300917A00086000937A000F917894EF
:100340000F9300917A00006200937A000F910F934F
:1003500000917B000E7F00937B000F910F93009123
:100360007B000D7F00937B000F910F9300917B002A
:100370000B7F00937B000F910F9300917A000F7D0C
:1003800000937A000F910F9300917B000E7F0093F2
:100390007B000F910F9300917B000D7F00937B00FA
:1003A0000F910F9300917B000B7F00937B000F91C7
:1003B0000F9300917A00006200937A000F910F93DF
:1003C00000917B00016000937B000F910F930091DF
:1003D0007B000D7F00937B000F910F9300917B00BA
:1003E0000B7F00937B000F910F9300917A000F7D9C
:1003F00000937A000F910F9300917B000E7F009382
:100400007B000F910F9300917B000D7F00937B0089
:100410000F910F9300917B000B7F00937B000F9156
:100420000F9300917A00006200937A000F910F936E
:1004300000917B000E7F00937B000F910F93009142
:100440007B00026000937B000F910F9300917B0073
:100450000B7F00937B000F910F9300917A000F7D2B
:1004600000937A000F910F9300917B000E7F009311
:100470007B000F910F9300917B000D7F00937B0019
:100480000F910F9300917B000B7F00937B000F91E6
:100490000F9300917A00006200937A000F910F93FE
:1004A00000917B00016000937B000F910F930091FE
:1004B0007B00026000937B000F910F9300917B0003
:1004C0000B7F00937B000F910F9300917A000F7DBB
:1004D00000937A000F910F9300917B000E7F0093A1
:1004E0007B000F910F9300917B000D7F00937B00A9
:1004F0000F910F9300917B000B7F00937B000F9176
:100500000F9300917A00006200937A000F910F938D
:1005100000917B000E7F00937B000F910F93009161
:100520007B000D7F00937B000F910F9300917B0068
:10053000046000937B000F910F9300917A000F7D70
:1005400000937A000F910F9300917B000E7F009330
:100550007B000F910F9300917B000D7F00937B0038
:100560000F910F9300917B000B7F00937B000F9105
:100570000F9300917A00006200937A000F910F931D
:1005800000917B00016000937B000F910F9300911D
:100590007B000D7F00937B000F910F9300917B00F8
:1005A000046000937B000F910F9300917A000F7D00
:1005B00000937A000F910F9300917B000E7F0093C0
:1005C0007B000F910F9300917B000D7F00937B00C8
:1005D0000F910F9300917B000B7F00937B000F9195
:1005E0000F9300917A00006200937A000F910F93AD
:1005F00000917B000E7F00937B000F910F93009181
:100600007B00026000937B000F910F9300917B00B1
:10061000046000937B000F910F9300917A000F7D8F
:1006200000937A000F910F9300917B000E7F00934F
:100630007B000F910F9300917B000D7F00937B0057
:100640000F910F9300917B000B7F00937B000F9124
:100650000F9300917A00006200937A000F910F933C
:1006600000917B00016000937B000F910F9300913C
:100670007B00026000937B000F910F9300917B0041
:10068000046000937B000F910F9300917A000F7D1F
:1006900000937A000F910F9300917B000E7F0093DF
:1006A0007B000F910F9300917B000D7F00937B00E7
:1006B0000F910F9300917B000B7F00937B000F91B4
:1006C0000FEF009307010E947500FFCF1091780093
:0A06D00000917900009308010895DD
:00000001FF
