:020000020000FC
:100000000C942F010C947E000C9481000C948400BD
:100010000C9487000C948A000C948D000C94900032
:100020000C9493000C9496000C9499000C949C00F2
:100030000C942C010C94C9000C94CC000C94CF00AF
:100040000C94B7000C94BA000C94BD000C94C00042
:100050000C94C3000C94AE000C94B1000C94B4004A
:100060000C94A5000C9402010C9405010C94080159
:100070000C9475000C9478000C947B000C94D200C6
:100080000C94D5000C94D8000C94DB000C94DE008A
:100090000C940B010C940E010C9411010C94FF00B4
:1000A0000C94A8000C94E1000C94E4000C94E7007C
:1000B0000C94EA000C94ED000C94F0000C94F30006
:1000C0000C94F6000C94F9000C94FC000C941401B0
:1000D0000C9417010C941A010C941D010C9420012E
:1000E0000C9423011197F1F70895F89478941895DA
:1000F000F89478941895F89478941895F8947894DE
:100100001895F89478941895F89478941895F8942C
:1001100078941895F89478941895F894789418959C
:10012000F89478941895F89478941895F8947894AD
:100130001895F89478941895F89478940895F8940C
:1001400078941895F89478941895F894789418956C
:10015000F89478941895F89478941895F89478947D
:100160001895F89478941895F89478941895F894CC
:1001700078941895F89478941895F894789418953C
:10018000F89478941895F89478941895F89478944D
:100190001895F89478941895F89478941895F8949C
:1001A00078941895F89478941895F894789418950C
:1001B000F89478941895F89478941895F89478941D
:1001C0001895F89478941895F89478941895F8946C
:1001D00078941895F89478941895F89478941895DC
:1001E000F89478941895F89478941895F8947894ED
:1001F0001895F89478941895F89478941895F8943C
:1002000078941895F89478941895F89478941895AB
:10021000F89478941895F89478941895F8947894BC
:100220001895F89478941895F89478941895F8940B
:1002300078941895F89478941895F894789418957B
:10024000F89478941895F89478941895F89478948C
:100250001895F89478941895F894789418950FEF69
:0A0260000DBF01E20EBF7894FFCF3E
:00000001FF
