:020000020000FC
:100000000C9488040C94D7030C94DA030C94DD034D
:100010000C94E0030C94E3030C94E6030C94E903C2
:100020000C94EC030C94EF030C94F2030C94F50382
:100030000C9485040C9422040C9425040C9428043C
:100040000C9410040C9413040C9416040C941904CE
:100050000C941C040C9407040C940A040C940D04D6
:100060000C94FE030C945B040C945E040C946104E9
:100070000C94CE030C94D1030C94D4030C942B0455
:100080000C942E040C9431040C9434040C94370416
:100090000C9464040C9467040C946A040C94580443
:1000A0000C9401040C943A040C943D040C94400408
:1000B0000C9443040C9446040C9449040C944C0492
:1000C0000C944F040C9452040C9455040C946D043D
:1000D0000C9470040C9473040C9476040C947904BE
:1000E0000C947C041197F1F7089521911A953191A0
:1000F0000E9480001A95D9F733270E948000089546
:10010000F89458E05A954CF0379527956FB760FFF3
:100110000C94820020270C94820078940895B0E01B
:10012000A5E1E0DF0895B0E0ADEFDCDF0895B0E0D9
:10013000ADEED8DF0895B0E0A5E2D4DF0895B0E0D9
:10014000A1E2D0DF0895B0E0A9EDCCDF0895B7E0DB
:10015000ADE7C8DF0895B1E0A5E1C4DF0895B6E0DA
:10016000A5E6C0DF0895BCE9A0E4BCDF08950F93C5
:100170000BE40E94B3000A95E1F70F9108950091F6
:10018000240200FD0C94ED000F93009124020D7FDA
:10019000009324020F9101911CE83A9521910E944D
:1001A000EE003A95D9F7003009F011F40C94ED0007
:1001B000042F1127389711930A95E9F70F930091AF
:1001C00024020260009324020F91483021F40E941F
:1001D000CC030C94ED000E94CD030895F89458E0F0
:1001E0005A954CF0279507956FB760FF0C94F00077
:1001F00001270C94F00078940895F8940F93389A9E
:100200000F910F9340980F910E948F000F93389891
:100210000F910E94930078940895F8940F93389A60
:100220000F910F9340980F910E9497000F93389869
:100230000F910E949B0078940895F8940F93389A38
:100240000F910F9340980F910E948F000F93389851
:100250000F910E949F00309BE894309968940E940F
:10026000A30078940895F8940F93389A0F910F9300
:1002700040980F910E94A7000F9338980F910E9409
:10028000AB0030990C944D010F93009124020E7F26
:10029000009324020F910C9456010F9300912402B5
:1002A0000160009324020F910E94C8030E94AF00D6
:1002B000789408951F931091240210FD0C946A0104
:1002C00018E000FD0E94FD0000FF0E940D01069550
:1002D0001A95B9F71F9108950091240200FD0C941E
:1002E0007A0118E001910F93002F0E945A010F919B
:1002F0001A95C1F708951F931091240210FD0C94D4
:1003000086010F93002F0E945A010F911F910895AB
:100310000F931F933F93002718E00E941D013FB7E2
:1003200036FF889436FD089407951A95B1F7019326
:1003300018E02A9591F73F911F910F9108950F931F
:100340000091240200FD0C94B6010FEF0F93002FD3
:100350000E945A010F910F93002F0E945A010F9192
:10036000012F0F93002F0E945A010F910F910895B2
:10037000013009F011F40E94E4010E94CE010895B9
:100380000F930091240200FD0C94CC010E941D01EA
:100390000FB706FF0C94C1010F9108950F930F93AF
:1003A000229A0F910F932A9A0F910E949B000BE4BF
:1003B0000E94B3000A95E1F70F932A980F910F93CB
:1003C00022980F910F9108950F93229A0F910F93F6
:1003D0002A9A0F910E94B7000F932A980F910F93BA
:1003E00022980F910895FF93EF930F931F932F93EC
:1003F0000F9300E0009324020F910091240200FD6E
:100400000C94CB02403F21F4F2E0E9E00C940A02A4
:10041000F2E0E1E10091240204FD0C94CB020F9381
:100420000FEF009325020F910F9300E00093260237
:100430000F91403F39F40F9300EF0E947B010F9121
:100440000C9427020F930CEE0E947B010F910E94E7
:100450001D010FB71091240206FF1F7D06FD1062DB
:10046000109324020E941D010FB71091240215FD64
:100470000C943F0206FD0C9476020C94440206FD97
:100480000C9444020C9476021091240215FD0C94F5
:10049000D1020091260210912702011749F40F930F
:1004A000009124020064009324020F910C947E02B8
:1004B000011748F00F93009124020F7B0093240250
:1004C0000F910C946D02009124021091280217FFE5
:1004D0000F7B17FD00640093240210912402009109
:1004E000260216FF009325020C947E02109124022E
:1004F00015FF1F7B15FD1064109324021091240238
:1005000000912802069516FF0F7716FD00681395D7
:100510000093280210932402212F2F70283021F4F9
:100520000193107F109324021091240216FF0E9461
:100530000D0116FD0E94FD001091260213951093E7
:10054000260210912602103410F40C942702009118
:100550002502009327020F3F39F40F9300912402E4
:100560000061009324020F910F931F932F933F93E9
:100570004F935F936F9338E048E038970E94BF0035
:100580006F915F914F913F912F911F910F910E9419
:10059000D5020C94FD012F911F910F91EF91FF91C6
:1005A00008950E94CB030C94CB02403F19F40E94A3
:1005B000C90308950E94CA0308950E9433010F934E
:1005C0000091240200FD0C9408030F9303E30E94A2
:1005D0007B010F91FF93EF932F93F2E0E9E028E086
:1005E0000E9488010F931F932F933F934F935F9324
:1005F0006F9338E048E038970E94BF006F915F9199
:100600004F913F912F911F910F912F91EF91FF915A
:100610000F9108950E9433010F930091240200FD71
:100620000C941D030F9305E50E947B010F910F931E
:100630001F930E946C011F910F910F9108950E94CA
:1006400033010F930091240200FD0C942C034F936F
:100650004CEE0E94F3014F910F9108950E943301D7
:100660000F930091240200FD0C943B030F930CECBC
:100670000E947B010F910F9108950F930FB706FD14
:100680000C944B030F93009124020F7700932402E4
:100690000F910C9452030F93009124020068009371
:1006A00024020F910F9108950091240200FD0C94F3
:1006B000BF0300911A0210911902110F001F110FB0
:1006C000001F110F001F110F001F07FF0C94730371
:1006D0000F93009124020460009324020F9100956F
:1006E00010950C947A030F93009124020B7F0093D2
:1006F00024020F9112951093230214E60F93009198
:100700002402077F009324020F91011B4AF00F93EC
:10071000009124020860009324020F910C94850339
:10072000010F22271AE0011B1AF023950C94930362
:10073000010F0295000F221F000F221F000F221F22
:10074000000F221F20932202F7E0E0E8009123022D
:10075000E00F0027F01F049122271AE0011B1AF076
:1007600023950C94AE03010F0295000F221F000F7A
:10077000221F000F221F000F221F20932302089523
:1007800000060C13191F262C32383F454B51585E7A
:10079000089508950895089508950895F894789413
:1007A0001895F89478941895F89478941895F89486
:1007B00078941895F89478941895F89478941895F6
:1007C000F89478941895F89478941895F894789407
:1007D0001895F89478941895F89478941895F89456
:1007E00078941895F89478941895F89478940895D6
:1007F000F89478941895F89478941895F8947894D7
:100800001895F89478941895F89478941895F89425
:1008100078941895F89478941895F8947894189595
:10082000F89478941895F89478941895F8947894A6
:100830001895F89478941895F89478941895F894F5
:1008400078941895F89478941895F8947894189565
:10085000F89478941895F89478941895F894789476
:100860001895F89478941895F89478941895F894C5
:1008700078941895F89478941895F8947894189535
:10088000F89478941895F89478941895F894789446
:100890001895F89478941895F89478941895F89495
:1008A00078941895F89478941895F8947894189505
:1008B000F89478941895F89478941895F894789416
:1008C0001895F89478941895F89478941895F89465
:1008D00078941895F89478941895F89478941895D5
:1008E000F89478941895F89478941895F8947894E6
:1008F0001895F89478941895F89478941895F89435
:1009000078941895F89478941895F89478941895A4
:100910000FEF0DBF01E20EBF0F930091240200689C
:10092000009324020F9178940E942E030F9304E405
:100930000E947B010F910F931F9301E010912402FD
:1009400017FD0E94C0010E94B8011F910F910E94E3
:100950002E030F930EEB0E947B010F91FF93EF93F9
:100960002F93F2E0E9E129E00E9488010F931F93A1
:100970002F933F934F935F936F9339E049E03997FB
:100980000E94BF006F915F914F913F912F911F91F6
:100990000F912F91EF91FF910F931F932F93FF933F
:1009A000EF930E945403EF91FF912F911F910F91AC
:0209B000FFCF77
:00000001FF
