:020000020000FC
:100000000C94BB030C940A030C940D030C94100382
:100010000C9413030C9416030C9419030C941C03F6
:100020000C941F030C9422030C9425030C942803B6
:100030000C94B8030C9455030C9458030C945B0374
:100040000C9443030C9446030C9449030C944C0306
:100050000C944F030C943A030C943D030C9440030E
:100060000C9431030C948E030C9491030C94940320
:100070000C9401030C9404030C9407030C945E038A
:100080000C9461030C9464030C9467030C946A034E
:100090000C9497030C949A030C949D030C948B037B
:1000A0000C9434030C946D030C9470030C94730340
:1000B0000C9476030C9479030C947C030C947F03CA
:1000C0000C9482030C9485030C9488030C94A00375
:1000D0000C94A3030C94A6030C94A9030C94AC03F6
:1000E0000C94AF031197F1F70895B7E2A0E10E94D5
:1000F0007200B7E2A0E10E94720008950F93009190
:10010000B900087F011308C00F93009100020E7F11
:10011000009300020F9109C00213F1CF0F930091D9
:1001200000020160009300020F910F9108950F9358
:100130000091BC0007FFFCCF0F9108950F9304EAD4
:100140000093BC000E9497000F9108950F9304E85C
:100150000093BC000E9497000F9108950F9304E94B
:100160000093BC000E9475000F910895B0E0A6E1D5
:100170000E9472000895B0E0ABE50E9472000895FD
:10018000B1E0A9EC0E9472000895B7E2A0E10E94DC
:100190007200B7E2A0E10E9472000895BCE9A0E4F9
:1001A0000E947200BCE9A0E40E94720008951F93AF
:1001B0001091050213FF032B13FD042B1F910895CB
:1001C0000F931F930AE00093BB000E94A6001F93A9
:1001D0002F9318E220E30E947E002F911F910EEFD3
:1001E0000093BB000E94A6001F932F9318E220E308
:1001F0000E947E002F911F910E94B6000E94AE00C7
:100200000E949E0000E70F93002F01600093BB0047
:100210000E94A6001F932F9310E428E40E947E0002
:100220002F911F910F910E94B6000E94B6000E946C
:10023000A6001091BB000E949E0000E70F93002FC4
:100240000093BB000E94A6001F932F9318E120E2A9
:100250000E947E002F911F910F910AE00093BB0036
:100260000E94A6001F932F9318E220E30E947E00B5
:100270002F911F910EEF0093BB000E94A6001F93C9
:100280002F9318E220E30E947E002F911F910E947D
:10029000B6000AE00093BB000E94A6001F932F93B4
:1002A00018E220E30E947E002F911F9108E0009346
:1002B000BB000E94A6001F932F9318E220E30E9428
:1002C0007E002F911F9117FD7BCF1F910F910895F5
:1002D0000E946D010E949D0108950F93007F0F936E
:1002E0003F934F9334E04CE00E94D7004F913F91F1
:1002F0000093BB000E94A6001F932F9318E220E3F7
:100300000E947E002F911F910F913F934F9330E0F9
:1003100048E00E94D7004F913F910E94B6000093A1
:10032000BB000E94A6001F932F9318E220E30E94B7
:100330007E002F911F910F9108950295007F0F93DA
:100340003F934F9334E04CE00E94D7004F913F9190
:100350000093BB000E94A6001F932F9318E220E396
:100360000E947E002F911F910F913F934F9330E099
:1003700048E00E94D7004F913F910E94B600009341
:10038000BB000E94A6001F932F9318E220E30E9457
:100390007E002F911F9108950E94D1010E940302B7
:1003A00008950F93007F0F933F934F9335E04DE0F7
:1003B0000E94D7004F913F910093BB000E94A6007E
:1003C0001F932F9318E220E30E947E002F911F912C
:1003D0000F913F934F9331E049E00E94D7004F9136
:1003E0003F910E94B6000E94B6000093BB000E949D
:1003F000A6001F932F9318E220E30E947E002F9106
:100400001F910F9108950295007F0F933F934F9393
:1004100035E04DE00E94D7004F913F910093BB0023
:100420000E94A6001F932F9318E220E30E947E00F3
:100430002F911F910F913F934F9331E049E00E941C
:10044000D7004F913F910E94B6000E94B6000093E2
:10045000BB000E94A6001F932F9318E220E30E9486
:100460007E002F911F91089503E00E94CE000E940C
:100470009E0000E70F93002F0093BB000E94A60090
:100480001F932F9318E120E20E947E002F911F916D
:100490000F9100E30E946D010E94C50000E30E94DD
:1004A0006D010E94C00000E30E946D0100E20E9405
:1004B0006D010E94E000009101020F93002F0E9445
:1004C00068010F910E94E000009102020E94C000AA
:1004D0000F93002F0E9468010F910E94E00001E03D
:1004E0000E94C0000F93002F0E9468010F910E948C
:1004F000E000009103020E94C0000F93002F0E94B1
:1005000068010F91009110000F93002F0E94680165
:100510000F910E94AE000895113031F0123039F081
:10052000133041F0143049F01FE7010F08C01FEBF2
:10053000010F05C013E9010F02C013ED010F102FC9
:100540001058109306020F93002F0E9468010F911C
:1005500008953F93309106023395343151F40F934F
:100560001F9312E001E00E948C021F910F913F91B6
:100570000895343551F40F931F9313E001E00E9466
:100580008C021F910F913F910895383251F40F93CF
:100590001F9314E001E00E948C021F910F913F9184
:1005A0000895383651F40F931F9311E001E00E9433
:1005B0008C021F910F913F910895309306023F9155
:1005C00008951F930F93159105910F93002F0E948B
:1005D000CC010F910E94A9021A95B1F70F911F91BA
:1005E00008951F930F93119101910F93002F0E9473
:1005F000CC010F910E94A9021A95B1F70F911F919A
:100600000895F89478941895F89478941895F89437
:1006100078941895F89478941895F8947894189597
:10062000F89478941895F89478941895F8947894A8
:100630001895F89478941895F89478941895F894F7
:1006400078941895F89478941895F8947894189567
:10065000F89478940895F89478941895F894789488
:100660001895F89478941895F89478941895F894C7
:1006700078941895F89478941895F8947894189537
:10068000F89478941895F89478941895F894789448
:100690001895F89478941895F89478941895F89497
:1006A00078941895F89478941895F8947894189507
:1006B000F89478941895F89478941895F894789418
:1006C0001895F89478941895F89478941895F89467
:1006D00078941895F89478941895F89478941895D7
:1006E000F89478941895F89478941895F8947894E8
:1006F0001895F89478941895F89478941895F89437
:1007000078941895F89478941895F89478941895A6
:10071000F89478941895F89478941895F8947894B7
:100720001895F89478941895F89478941895F89406
:1007300078941895F89478941895F8947894189576
:10074000F89478941895F89478941895F894789487
:100750001895F89478941895F89478941895F894D6
:1007600078941895F89478941895F8947894189546
:10077000F894789418950FEF0DBF01E20EBF0EE3C9
:100780000093B80000E208600093010208E00460F2
:10079000026001600093020204E002600093030221
:1007A00000E10460009304020E94340278940E94E5
:1007B0009E0000E70F93002F0093BB000E94A6004D
:1007C0001F932F9318E120E20E947E002F911F912A
:0407D0000F91FFCFB7
:00000001FF
