:020000020000FC
:100000000C94B7030C9406030C9409030C940C0392
:100010000C940F030C9412030C9415030C94180306
:100020000C941B030C941E030C9421030C942403C6
:100030000C94B4030C9451030C9454030C94570384
:100040000C943F030C9442030C9445030C94480316
:100050000C944B030C9436030C9439030C943C031E
:100060000C942D030C948A030C948D030C94900330
:100070000C94FD020C9400030C9403030C945A039B
:100080000C945D030C9460030C9463030C9466035E
:100090000C9493030C9496030C9499030C9487038B
:1000A0000C9430030C9469030C946C030C946F0350
:1000B0000C9472030C9475030C9478030C947B03DA
:1000C0000C947E030C9481030C9484030C949C0385
:1000D0000C949F030C94A2030C94A5030C94A80306
:1000E0000C94AB031197F1F70895B7E2A0E10E94D9
:1000F0007200B7E2A0E10E94720008950F93009190
:10010000B900087F011308C00F93009100020E7F11
:10011000009300020F9109C00213F1CF0F930091D9
:1001200000020160009300020F910F9108950F9358
:100130000091BC0007FFFCCF0F9108950F9304EAD4
:100140000093BC000E9497000F9108950F9304E85C
:100150000093BC000E9497000F9108950F9304E94B
:100160000093BC000E9475000F910895B0E0A6E1D5
:100170000E9472000895B0E0ABE50E9472000895FD
:10018000B1E0A9EC0E9472000895B7E2A0E10E94DC
:100190007200B7E2A0E10E9472000895BCE9A0E4F9
:1001A0000E947200BCE9A0E40E94720008951F93AF
:1001B0001091050213FF032B13FD042B1F910895CB
:1001C0000F931F930AE00093BB000E94A6001F93A9
:1001D0002F9318E220E30E947E002F911F910EEFD3
:1001E0000093BB000E94A6001F932F9318E220E308
:1001F0000E947E002F911F910E94B6000E94AE00C7
:100200000E949E0000E70F93002F01600093BB0047
:100210000E94A6001F932F9310E428E40E947E0002
:100220002F911F910F910E94A6001091BB000E9478
:100230009E0000E70F93002F0093BB000E94A600D2
:100240001F932F9318E120E20E947E002F911F91AF
:100250000F910AE00093BB000E94A6001F932F930A
:1002600018E220E30E947E002F911F910EEF009371
:10027000BB000E94A6001F932F9318E220E30E9468
:100280007E002F911F910E94B6000AE00093BB00F0
:100290000E94A6001F932F9318E220E30E947E0085
:1002A0002F911F9108E00093BB000E94A6001F93AE
:1002B0002F9318E220E30E947E002F911F9117FDDB
:1002C0007FCF1F910F9108950E9469010E949901AB
:1002D00008950F93007F0F933F934F9334E04CE0CA
:1002E0000E94D7004F913F910093BB000E94A6004F
:1002F0001F932F9318E220E30E947E002F911F91FD
:100300000F913F934F9330E048E00E94D7004F9108
:100310003F910E94B6000093BB000E94A6001F936D
:100320002F9318E220E30E947E002F911F910F91DE
:1003300008950295007F0F933F934F9334E04CE074
:100340000E94D7004F913F910093BB000E94A600EE
:100350001F932F9318E220E30E947E002F911F919C
:100360000F913F934F9330E048E00E94D7004F91A8
:100370003F910E94B6000093BB000E94A6001F930D
:100380002F9318E220E30E947E002F911F91089581
:100390000E94CD010E94FF0108950F93007F0F93EB
:1003A0003F934F9335E04DE00E94D7004F913F912E
:1003B0000093BB000E94A6001F932F9318E220E336
:1003C0000E947E002F911F910F913F934F9331E038
:1003D00049E00E94D7004F913F910E94B6000E94D1
:1003E000B6000093BB000E94A6001F932F9318E253
:1003F00020E30E947E002F911F910F910895029596
:10040000007F0F933F934F9335E04DE00E94D7005C
:100410004F913F910093BB000E94A6001F932F9322
:1004200018E220E30E947E002F911F910F913F93CD
:100430004F9331E049E00E94D7004F913F910E94D5
:10044000B6000E94B6000093BB000E94A6001F9356
:100450002F9318E220E30E947E002F911F910895B0
:1004600003E00E94CE000E949E0000E70F93002F41
:100470000093BB000E94A6001F932F9318E120E277
:100480000E947E002F911F910F9100E30E9469014D
:100490000E94C50000E30E9469010E94C00000E3C1
:1004A0000E94690100E20E9469010E94E00000913F
:1004B00001020F93002F0E9464010F910E94E0003F
:1004C000009102020E94C0000F93002F0E9464015D
:1004D0000F910E94E00001E00E94C0000F93002FE6
:1004E0000E9464010F910E94E000009103020E94AB
:1004F000C0000F93002F0E9464010F910091100023
:100500000F93002F0E9464010F910E94AE00089586
:10051000113031F0123039F0133041F0143049F01D
:100520001FE7010F08C01FEB010F05C013E9010F02
:1005300002C013ED010F102F1058109306020F93F5
:10054000002F0E9464010F9108953F93309106029D
:100550003395343151F40F931F9312E001E00E9460
:1005600088021F910F913F910895343551F40F93F4
:100570001F9313E001E00E9488021F910F913F91A9
:100580000895383251F40F931F9314E001E00E9454
:1005900088021F910F913F910895383651F40F93BF
:1005A0001F9311E001E00E9488021F910F913F917B
:1005B0000895309306023F9108951F930F9315916C
:1005C00005910F93002F0E94C8010F910E94A50270
:1005D0001A95B1F70F911F9108951F930F931191E1
:1005E00001910F93002F0E94C8010F910E94A50254
:1005F0001A95B1F70F911F910895F8947894189572
:10060000F89478941895F89478941895F8947894C8
:100610001895F89478941895F89478941895F89417
:1006200078941895F89478941895F8947894189587
:10063000F89478941895F89478941895F894789498
:100640001895F89478941895F89478940895F894F7
:1006500078941895F89478941895F8947894189557
:10066000F89478941895F89478941895F894789468
:100670001895F89478941895F89478941895F894B7
:1006800078941895F89478941895F8947894189527
:10069000F89478941895F89478941895F894789438
:1006A0001895F89478941895F89478941895F89487
:1006B00078941895F89478941895F89478941895F7
:1006C000F89478941895F89478941895F894789408
:1006D0001895F89478941895F89478941895F89457
:1006E00078941895F89478941895F89478941895C7
:1006F000F89478941895F89478941895F8947894D8
:100700001895F89478941895F89478941895F89426
:1007100078941895F89478941895F8947894189596
:10072000F89478941895F89478941895F8947894A7
:100730001895F89478941895F89478941895F894F6
:1007400078941895F89478941895F8947894189566
:10075000F89478941895F89478941895F894789477
:100760001895F89478941895F894789418950FEF54
:100770000DBF01E20EBF0EE30093B80000E2086077
:100780000093010208E0046002600160009302022D
:1007900004E002600093030200E10460009304029D
:0807A0000E9430027894FFCFA3
:00000001FF
