:020000020000FC
:100000000C947D020C94CC010C94CF010C94D20181
:100010000C94D5010C94D8010C94DB010C94DE01F6
:100020000C94E1010C94E4010C94E7010C94EA01B6
:100030000C947A020C9417020C941A020C941D0270
:100040000C9405020C9408020C940B020C940E0202
:100050000C9411020C94FC010C94FF010C9402020C
:100060000C94F3010C9450020C9453020C9456021D
:100070000C94C3010C94C6010C94C9010C94200289
:100080000C9423020C9426020C9429020C942C024A
:100090000C9459020C945C020C945F020C944D0277
:1000A0000C94F6010C942F020C9432020C9435023D
:1000B0000C9438020C943B020C943E020C944102C6
:1000C0000C9444020C9447020C944A020C94620271
:1000D0000C9465020C9468020C946B020C946E02F2
:1000E0000C9471021197F1F70895B7E2A0E10E9414
:1000F0007200B7E2A0E10E94720008959091B900E9
:10010000987F981306C0909100029E7F9093000202
:1001100007C09713F3CF9091000291609093000273
:1001200008959091BC0097FFFCCF089594EA9093B6
:10013000BC000E949100089594E89093BC000E9436
:100140009100089594E99093BC000E947500089571
:10015000B0E0A6E10E9472000895B0E0ABE50E9415
:1001600072000895B1E0A9EC0E9472000895B7E210
:10017000A0E10E947200B7E2A0E10E94720008951F
:10018000BCE9A0E40E947200BCE9A0E40E947200F5
:10019000089590E2986090930102089598E0946029
:1001A0009260916090930202089594E0926090931F
:1001B0000302089590E194609093040208950E94D0
:1001C000C0000E94960090E79093BB000E949C00A4
:1001D00088E170E20E947E0090E30E943D010E944F
:1001E000B70090E30E943D010E94B20090E30E949C
:1001F0003D0190E20E943D010E9472019091010236
:100200000E943D010E9458010E94720190910202D9
:100210000E94B2000E943D010E9458010E9472019A
:1002200091E00E94B2000E943D010E9458010E948C
:100230007201909103020E94B2000E943D010E944F
:10024000580190B30E943D010E9458010E94A200F3
:1002500008959F930E94960090E79093BB000E94A0
:100260009C0088E170E20E947E009F910E943D0107
:100270000E9458010E94A20008959F93907F9F932F
:10028000946098609093BB000E949C0088E270E3A9
:100290000E947E009F9198600E94A8009093BB00EE
:1002A0000E949C0088E270E30E947E009F91089566
:1002B0009295907F9F93946098609093BB000E946A
:1002C0009C0088E270E30E947E009F9198600E94EB
:1002D000A8009093BB000E949C0088E270E30E94FB
:1002E0007E0008959F938F939AEF9093BB000E9496
:1002F0009C0088E270E30E947E000E94A2000E949F
:10030000960090E791609093BB000E949C0080E46F
:1003100078E40E947E008091BB0087FD0C948B01E5
:100320000E94A2000E94960090E79093BB000E945A
:100330009C0088E170E20E947E0098E09093BB00F0
:100340000E949C0088E270E30E947E008F919F9142
:100350000895813031F0823039F0833041F08430BB
:1003600049F08FE7980F08C08FEB980F05C083E91D
:10037000980F02C083ED980F892F80588093060252
:100380000E9429010895F89478941895F894789427
:100390001895F89478941895F89478941895F8949A
:1003A00078941895F89478941895F894789418950A
:1003B000F89478941895F89478941895F89478941B
:1003C0001895F89478941895F89478941895F8946A
:1003D00078941895F89478940895F89478941895EA
:1003E000F89478941895F89478941895F8947894EB
:1003F0001895F89478941895F89478941895F8943A
:1004000078941895F89478941895F89478941895A9
:10041000F89478941895F89478941895F8947894BA
:100420001895F89478941895F89478941895F89409
:1004300078941895F89478941895F8947894189579
:10044000F89478941895F89478941895F89478948A
:100450001895F89478941895F89478941895F894D9
:1004600078941895F89478941895F8947894189549
:10047000F89478941895F89478941895F89478945A
:100480001895F89478941895F89478941895F894A9
:1004900078941895F89478941895F8947894189519
:1004A000F89478941895F89478941895F89478942A
:1004B0001895F89478941895F89478941895F89479
:1004C00078941895F89478941895F89478941895E9
:1004D000F89478941895F89478941895F8947894FA
:1004E0001895F89478941895F89478941895F89449
:1004F00078941895F894789418950FEF0DBF01E251
:100500000EBF9EE39093B80078940E94C9000E94A9
:10051000CE000E94D5000E94DA000E94DF0083E036
:0805200091E00E94A901FFCF48
:00000001FF
