:020000020000FC
:100000000C94C6020C9413020C9416020C94190260
:100010000C941C020C941F020C9422020C942502D6
:100020000C9428020C942B020C9430020C94330292
:100030000C94C3020C9460020C9463020C9466024C
:100040000C944E020C9451020C9454020C945702DE
:100050000C945A020C9445020C9448020C944B02E6
:100060000C943C020C9499020C949C020C949F02F8
:100070000C940A020C940D020C9410020C94690268
:100080000C946C020C946F020C9472020C94750226
:100090000C94A2020C94A5020C94A8020C94960253
:1000A0000C943F020C9478020C947B020C947E0218
:1000B0000C9481020C9484020C9487020C948A02A2
:1000C0000C948D020C9490020C9493020C94AB024D
:1000D0000C94AE020C94B1020C94B4020C94B702CE
:1000E0000C94BA021197F1F70895B7E2A0E10E94CB
:1000F0007200B7E2A0E10E94720008959091B900E9
:10010000987F981306C0909100029E7F9093000202
:1001100007C09713F3CF9091000291609093000273
:1001200008959091BC0097FFFCCF089594EA9093B6
:10013000BC000E949100089594E89093BC000E9436
:100140009100089594E99093BC000E947500089571
:10015000B0E0A6E10E9472000895B0E0ABE50E9415
:1001600072000895B1E0A9EC0E9472000895B7E210
:10017000A0E10E947200B7E2A0E10E94720008951F
:10018000BCE9A0E40E947200BCE9A0E40E947200F5
:1001900008950E94C0000E94960090E79093BB00D3
:1001A0000E949C0088E170E20E947E0090E30E9421
:1001B00027010E94B70090E30E9427010E94B2002D
:1001C00090E30E94270190E20E9427010E945C01B7
:1001D000909101020E9427010E9442010E945C014D
:1001E000909102020E94B2000E9427010E944201E7
:1001F0000E945C0191E00E94B2000E9427010E94CF
:1002000042010E945C01909103020E94B2000E9490
:1002100027010E94420190B30E9427010E944201DF
:100220000E94A20008959F930E94960090E79093E9
:10023000BB000E949C0088E170E20E947E009F91BA
:100240000E9427010E9442010E94A20008959F93EC
:10025000907F9F93946098609093BB000E949C0055
:1002600088E270E30E947E009F9198600E94A8003F
:100270009093BB000E949C0088E270E30E947E0085
:100280009F9108959295907F9F939460986090932A
:10029000BB000E949C0088E270E30E947E009F9158
:1002A00098600E94A8009093BB000E949C0088E286
:1002B00070E30E947E0008959F938F939AEF90932E
:1002C000BB000E949C0088E270E30E947E000E94B6
:1002D000A2000E94960090E791609093BB000E945C
:1002E0009C0080E478E40E947E008091BB0087FD42
:1002F0000C9475010E94A2000E94960090E79093D2
:10030000BB000E949C0088E170E20E947E0098E0A1
:100310009093BB000E949C0088E270E30E947E00E4
:100320008F919F9108959F930E94960090E79093DC
:10033000BB000E949C0088E170E20E947E009F91B9
:100340000E94A7010E94C2010E94A20008959F93EB
:10035000907F9F939160946098609093BB000E94FF
:100360009C0088E270E30E947E009F9191609860FB
:100370009093BB000E949C0088E270E30E947E0084
:100380009F9108959295907F9F939160946098605B
:100390009093BB000E949C0088E270E30E947E0064
:1003A0009F91916098609093BB000E949C0088E2AE
:1003B00070E30E947E000895813031F0823039F080
:1003C000833041F0843049F08FE7980F08C08FEBFD
:1003D000980F05C083E9980F02C083ED980F892F0D
:1003E0008058809306020E9413010895909106029E
:1003F0009395903129F482E091E00E94DC01089508
:10040000903529F481E091E00E94DC0108959093F9
:1004100006020895F89478941895F89478941895AD
:10042000F89478941895F89478941895F8947894AA
:100430001895F89478941895F89478941895F894F9
:1004400078941895F89478941895F8947894189569
:10045000F89478941895F8940E94F5027894189579
:10046000F89478941895F89478940895F89478947A
:100470001895F89478941895F89478941895F894B9
:1004800078941895F89478941895F8947894189529
:10049000F89478941895F89478941895F89478943A
:1004A0001895F89478941895F89478941895F89489
:1004B00078941895F89478941895F89478941895F9
:1004C000F89478941895F89478941895F89478940A
:1004D0001895F89478941895F89478941895F89459
:1004E00078941895F89478941895F89478941895C9
:1004F000F89478941895F89478941895F8947894DA
:100500001895F89478941895F89478941895F89428
:1005100078941895F89478941895F8947894189598
:10052000F89478941895F89478941895F8947894A9
:100530001895F89478941895F89478941895F894F8
:1005400078941895F89478941895F8947894189568
:10055000F89478941895F89478941895F894789479
:100560001895F89478941895F89478941895F894C8
:1005700078941895F89478941895F8947894189538
:10058000F89478941895F894789418950FEF0DBF17
:1005900001E20EBF9EE39093B800789490E29860D9
:1005A0009093010298E094609260916090930202AF
:1005B00094E092609093030290E19460909304021F
:1005C0000E94C90082E093E00E94DC010F93009139
:1005D0006B00046000936B000F910F930091680013
:1005E0000160009368000F91FFCF03B102FD0C94EE
:1005F000FC020C941403089500E40E94960090E716
:100600009093BB000E949C0088E170E20E947E00F3
:1006100099279093BB000E949C0088E270E30E949F
:100620007E000E94A20008950E94960090E7909399
:10063000BB000E949C0088E170E20E947E0098E06E
:100640009093BB000E949C0088E270E30E947E00B1
:060650000E94A2000895C3
:00000001FF
