:020000020000FC
:100000000C9431010C947E000C9481000C948400BB
:100010000C9487000C948A000C948D000C94900032
:100020000C9493000C9496000C949B000C949E00EE
:100030000C942E010C94CB000C94CE000C94D100A7
:100040000C94B9000C94BC000C94BF000C94C2003A
:100050000C94C5000C94B0000C94B3000C94B60042
:100060000C94A7000C9404010C9407010C940A0151
:100070000C9475000C9478000C947B000C94D400C4
:100080000C94D7000C94DA000C94DD000C94E00082
:100090000C940D010C9410010C9413010C940101AB
:1000A0000C94AA000C94E3000C94E6000C94E90074
:1000B0000C94EC000C94EF000C94F2000C94F500FE
:1000C0000C94F8000C94FB000C94FE000C941601A8
:1000D0000C9419010C941C010C941F010C94220126
:1000E0000C9425011197F1F70895F89478941895D8
:1000F000F89478941895F89478941895F8947894DE
:100100001895F89478941895F89478941895F8942C
:1001100078941895F89478941895F894789418959C
:10012000F89478941895F89478941895F8940E9417
:10013000370178941895F89478941895F8947894F1
:100140000895F89478941895F89478941895F894FC
:1001500078941895F89478941895F894789418955C
:10016000F89478941895F89478941895F89478946D
:100170001895F89478941895F89478941895F894BC
:1001800078941895F89478941895F894789418952C
:10019000F89478941895F89478941895F89478943D
:1001A0001895F89478941895F89478941895F8948C
:1001B00078941895F89478941895F89478941895FC
:1001C000F89478941895F89478941895F89478940D
:1001D0001895F89478941895F89478941895F8945C
:1001E00078941895F89478941895F89478941895CC
:1001F000F89478941895F89478941895F8947894DD
:100200001895F89478941895F89478941895F8942B
:1002100078941895F89478941895F894789418959B
:10022000F89478941895F89478941895F8947894AC
:100230001895F89478941895F89478941895F894FB
:1002400078941895F89478941895F894789418956B
:10025000F89478941895F89478941895F89478947C
:1002600018950FEF0DBF01E20EBF7894FFCF03B1D9
:1002700002FD0C943E010C943F01089508950895E9
:00000001FF
