:020000020000FC
:100000000C949C010C94EB000C94EE000C94F10009
:100010000C94F4000C94F7000C94FA000C94FD007E
:100020000C9400010C9403010C9406010C9409013A
:100030000C9499010C9436010C9439010C943C01F8
:100040000C9424010C9427010C942A010C942D018A
:100050000C9430010C941B010C941E010C94210192
:100060000C9412010C946F010C9472010C947501A4
:100070000C94E2000C94E5000C94E8000C943F0111
:100080000C9442010C9445010C9448010C944B01D2
:100090000C9478010C947B010C947E010C946C01FF
:1000A0000C9415010C944E010C9451010C945401C4
:1000B0000C9457010C945A010C945D010C9460014E
:1000C0000C9463010C9466010C9469010C948101F9
:1000D0000C9484010C9487010C948A010C948D017A
:1000E0000C9490011197F1F70895B7E2A0E10E94F6
:1000F0007200B7E2A0E10E94720008959091B900E9
:10010000987F981308C00F93009100020E7F009310
:1001100000020F9109C09713F1CF0F9300910002D5
:100120000160009300020F9108959091BC0097FF29
:10013000FCCF089594EA9093BC000E949500089526
:1001400094E89093BC000E949500089594E99093E0
:10015000BC000E947500089508959091000290FDE2
:100160000C94C300909101029093BB000E94A000E8
:1001700088E270E30E947E009091000290FD0C9452
:10018000C3000C94C5000E94AC000E94A600089514
:100190009091000290FD0C94DA000E94A0009091D2
:1001A000BB009093010294EC9093BC000E949500D8
:1001B0000C94DF000E94AC009927909301020E94EA
:1001C000A6000895F89478941895F8947894189562
:1001D000F89478941895F89478941895F8947894FD
:1001E0001895F89478941895F89478941895F8944C
:1001F00078941895F89478941895F89478941895BC
:10020000F89478941895F89478941895F8947894CC
:100210001895F89478940895F89478941895F8942B
:1002200078941895F89478941895F894789418958B
:10023000F89478941895F89478941895F89478949C
:100240001895F89478941895F89478941895F894EB
:1002500078941895F89478941895F894789418955B
:10026000F89478941895F89478941895F89478946C
:100270001895F89478941895F89478941895F894BB
:1002800078941895F89478941895F894789418952B
:10029000F89478941895F89478941895F89478943C
:1002A0001895F89478941895F89478941895F8948B
:1002B00078941895F89478941895F89478941895FB
:1002C000F89478941895F89478941895F89478940C
:1002D0001895F89478941895F89478941895F8945B
:1002E00078941895F89478941895F89478941895CB
:1002F000F89478941895F89478941895F8947894DC
:100300001895F89478941895F89478941895F8942A
:1003100078941895F89478941895F894789418959A
:10032000F89478941895F89478941895F8947894AB
:100330001895F894789418950FEF0DBF01E20EBF51
:100340009EE39093B80078940F9305E20093010226
:100350000F910E949A0090E79093BB000E94A0002A
:1003600088E170E20E947E000E94AD000E949A0027
:1003700090E791609093BB000E94A00080E478E435
:0A0380000E947E000E94C800FFCF1B
:00000001FF
