:020000020000FC
:100000000C94F5010C943F010C9442010C944501B1
:100010000C9448010C944B010C944E010C94560125
:100020000C9459010C945C010C945F010C946201D6
:100030000C94F2010C948F010C9492010C94950194
:100040000C947D010C9480010C9483010C94860126
:100050000C9489010C9474010C9477010C947A012E
:100060000C946B010C94C8010C94CB010C94CE0140
:100070000C9436010C9439010C943C010C949801B9
:100080000C949B010C949E010C94A1010C94A4016E
:100090000C94D1010C94D4010C94D7010C94C5019B
:1000A0000C946E010C94A7010C94AA010C94AD0160
:1000B0000C94B0010C94B3010C94B6010C94B901EA
:1000C0000C94BC010C94BF010C94C2010C94DA0195
:1000D0000C94DD010C94E0010C94E3010C94E60116
:1000E0000C94E9011197F1F70895B7E2A0E10E949D
:1000F0007200B7E2A0E10E94720008950F93009190
:10010000B900087F011308C00F93009100020E7F11
:10011000009300020F9109C00213F1CF0F930091D9
:1001200000020160009300020F910F9108950F9358
:100130000091BC0007FFFCCF0F9108950F9304EAD4
:100140000093BC000E9497000F9108950F9304E85C
:100150000093BC000E9497000F9108950F9304E94B
:100160000093BC000E9475000F91089508950E94AD
:100170009E000F93022F0093BB000E94A6001F93C6
:100180002F9318E120E20E947E002F911F910F9182
:100190002091000220FD0C94F70020910102209391
:1001A000BB000E94A6001F932F9318E220E30E9439
:1001B0007E002F911F912091000220FD0C94F700EA
:1001C000209102022093BB000E94A6001F932F9350
:1001D00018E220E30E947E002F911F9120910002DF
:1001E00020FD0C94F7000E94AE000C94FB000E94CE
:1001F000AE000E94B60008950E949E000F93022F49
:1002000001600093BB000E94A6001F932F9310E48F
:1002100028E40E947E002F911F910F9120910002EF
:1002200020FD0C94330104EC0093BC000E94970065
:100230000F9300E50093B9000F912091BB0020932C
:10024000010204EC0093BC000E9497000F9308E5A4
:100250000093B9000F912091BB00209302020E94ED
:10026000AE000C9435010E94B6000895F89478947D
:100270001895F89478941895F89478941895F894BB
:1002800078941895F89478941895F894789418952B
:10029000F89478941895F89478941895F8942F9386
:1002A00020E40E94FC002F9178941895F89478949B
:1002B0001895F89478941895F89478941895F8947B
:1002C00078941895F89478940895F89478941895FB
:1002D000F89478941895F89478941895F8947894FC
:1002E0001895F89478941895F89478941895F8944B
:1002F00078941895F89478941895F89478941895BB
:10030000F89478941895F89478941895F8947894CB
:100310001895F89478941895F89478941895F8941A
:1003200078941895F89478941895F894789418958A
:10033000F89478941895F89478941895F89478949B
:100340001895F89478941895F89478941895F894EA
:1003500078941895F89478941895F894789418955A
:10036000F89478941895F89478941895F89478946B
:100370001895F89478941895F89478941895F894BA
:1003800078941895F89478941895F894789418952A
:10039000F89478941895F89478941895F89478943B
:1003A0001895F89478941895F89478941895F8948A
:1003B00078941895F89478941895F89478941895FA
:1003C000F89478941895F89478941895F89478940B
:1003D0001895F89478941895F89478941895F8945A
:1003E00078941895F894789418950FEF0DBF01E262
:1003F0000EBF0EE30093B800789408E0009301026A
:100400000395009302022F9320E40E94B7002F91DE
:0C0410002F9320E40E94FC002F91FACFF3
:00000001FF
