:020000020000FC
:100000000C940D020C945C010C945F010C94620141
:100010000C9465010C9468010C946B010C946E01B6
:100020000C9471010C9474010C9477010C947A0176
:100030000C940A020C94A7010C94AA010C94AD0133
:100040000C9495010C9498010C949B010C949E01C6
:100050000C94A1010C948C010C948F010C949201CE
:100060000C9483010C94E0010C94E3010C94E601E0
:100070000C9453010C9456010C9459010C94B0014A
:100080000C94B3010C94B6010C94B9010C94BC010E
:100090000C94E9010C94EC010C94EF010C94DD013B
:1000A0000C9486010C94BF010C94C2010C94C50100
:1000B0000C94C8010C94CB010C94CE010C94D1018A
:1000C0000C94D4010C94D7010C94DA010C94F20135
:1000D0000C94F5010C94F8010C94FB010C94FE01B6
:1000E0000C9401021197F1F70895B7E2A0E10E9484
:1000F0007200B7E2A0E10E94720008959091B900E9
:10010000987F981308C00F93009100020E7F009310
:1001100000020F9109C09713F1CF0F9300910002D5
:100120000160009300020F9108959091BC0097FF29
:10013000FCCF089594EA9093BC000E949500089526
:1001400094E89093BC000E949500089594E99093E0
:10015000BC000E947500089508950E949A00922F95
:100160009093BB000E94A00088E170E20E947E0094
:100170002091000220FD0C94DB003093BB000E9414
:10018000A00088E270E30E947E002091000220FD22
:100190000C94DB004093BB000E94A00088E270E357
:1001A0000E947E002091000220FD0C94DB000E9442
:1001B000A6000C94DF000E94A6000E94AC000895E7
:1001C0000E949A00922F91609093BB000E94A00021
:1001D00080E478E40E947E002091000220FD0C94CF
:1001E000050194EC9093BC000E9495002091BB0007
:1001F00094EC9093BC000E9495003091BB000E944B
:10020000A0000E94A6000C9409010E94AC002227C5
:100210003327089508950E949A00922F9093BB006F
:100220000E94A00088E170E20E947E0020910002FE
:1002300020FD0C942C013093BB000E94A00088E2AA
:1002400070E30E947E002091000220FD0C942C019E
:100250000E94A6000C9430010E94A6000E940A0190
:1002600008950E949A00922F91609093BB000E9483
:10027000A00080E478E40E947E002091000220FD2E
:100280000C944F010E94A0002091BB0094EC90932D
:10029000BC000E9495000E94A6000C9452010E948E
:1002A0000A0122270895F89478941895F894789480
:1002B0001895F89478941895F89478941895F8947B
:1002C00078941895F89478941895F89478941895EB
:1002D000F89478941895F89478941895F8947894FC
:1002E0001895F89478941895F89478941895F8944B
:1002F00078941895F89478940895F89478941895CB
:10030000F89478941895F89478941895F8947894CB
:100310001895F89478941895F89478941895F8941A
:1003200078941895F89478941895F894789418958A
:10033000F89478941895F89478941895F89478949B
:100340001895F89478941895F89478941895F894EA
:1003500078941895F89478941895F894789418955A
:10036000F89478941895F89478941895F89478946B
:100370001895F89478941895F89478941895F894BA
:1003800078941895F89478941895F894789418952A
:10039000F89478941895F89478941895F89478943B
:1003A0001895F89478941895F89478941895F8948A
:1003B00078941895F89478941895F89478941895FA
:1003C000F89478941895F89478941895F89478940B
:1003D0001895F89478941895F89478941895F8945A
:1003E00078941895F89478941895F89478941895CA
:1003F000F89478941895F89478941895F8947894DB
:100400001895F89478941895F89478941895F89429
:1004100078941895F894789418950FEF0DBF01E231
:100420000EBF9EE39093B800789405E21FE02F93EF
:100430003F934F9320E4302F412F0E94AD004F9106
:100440003F912F912F933F9320E7302F0E940B0174
:060450003F912F91FFCF48
:00000001FF
