:020000020000FC
:100000000C9488020C94D7010C94DA010C94DD0155
:100010000C94E0010C94E3010C94E6010C94E901CA
:100020000C94EC010C94EF010C94F2010C94F5018A
:100030000C9485020C9422020C9425020C94280244
:100040000C9410020C9413020C9416020C941902D6
:100050000C941C020C9407020C940A020C940D02DE
:100060000C94FE010C945B020C945E020C946102F1
:100070000C94CE010C94D1010C94D4010C942B025D
:100080000C942E020C9431020C9434020C9437021E
:100090000C9464020C9467020C946A020C9458024B
:1000A0000C9401020C943A020C943D020C94400210
:1000B0000C9443020C9446020C9449020C944C029A
:1000C0000C944F020C9452020C9455020C946D0245
:1000D0000C9470020C9473020C9476020C947902C6
:1000E0000C947C021197F1F70895B7E2A0E10E9409
:1000F0007200B7E2A0E10E94720008959091B900E9
:10010000987F981306C0909100029E7F9093000202
:1001100007C09713F3CF9091000291609093000273
:1001200008959091BC0097FFFCCF089594EA9093B6
:10013000BC000E949100089594E89093BC000E9436
:100140009100089594E99093BC000E947500089571
:10015000B0E0A6E10E9472000895B0E0ABE50E9415
:1001600072000895B1E0A9EC0E9472000895B7E210
:10017000A0E10E947200B7E2A0E10E94720008951F
:10018000BCE9A0E40E947200BCE9A0E40E947200F5
:10019000089590E29061986090930102089598E02C
:1001A00094609260916090930202089594E092604E
:1001B00090930302089590E194609093040208954F
:1001C00097B1926097B997B1946097B997B19860D9
:1001D00097B997B1906197B997B1906297B997B174
:1001E000906497B997B1906897B99AB190619AB9AC
:1001F0009AB190629AB99AB190689AB99AB190649A
:100200009AB90E94C00090E35D980E942E010E945E
:10021000B70090E35D980E942E010E94B20090E327
:100220005D980E942E010E945401909101020E944B
:100230002801909102020E94280191E00E94280169
:10024000909103020E94280190B30E942801089512
:100250005D980E942E010E94540108955F9897FFB7
:100260005C9897FD5C9A96FF479896FD479A95FF94
:10027000469895FD469A94FF459894FD459A93FFBC
:10028000449893FD449A92FF439892FD439A91FFBC
:10029000429891FD429A90FF419890FD419A5E9A52
:1002A0000E94A8005E98089597B19D7F97B997B175
:1002B0009B7F97B997B1977F97B997B19F7E97B971
:1002C00097B19F7D97B997B19F7B97B997B19F776A
:1002D00097B99AB19F7E97B95D985F9A5E9A0E948E
:1002E000A8004C9B0C9479015E980E94A8000C9485
:1002F0006E015E985F9897B1926097B997B19460DC
:1003000097B997B1986097B997B1906197B997B13C
:10031000906297B997B1906497B997B1906897B97F
:100320009AB190619AB908955D9A0E942E010E9437
:10033000AD000E94AD000895813031F0823039F077
:10034000833041F0843049F08FE7980F08C08FEB7D
:10035000980F05C083E9980F02C083ED980F892F8D
:100360008058809306020E94280108953F9330919F
:1003700006023395303131F482E091E00E949C0115
:100380003F910895303531F481E091E00E949C0165
:100390003F910895309306023F910895F894789420
:1003A0001895F89478941895F89478941895F8948A
:1003B00078941895F89478941895F89478941895FA
:1003C000F89478941895F89478941895F89478940B
:1003D0001895F89478941895F89478941895F8945A
:1003E00078941895F89478941895F89478940895DA
:1003F000F89478941895F89478941895F8947894DB
:100400001895F89478941895F89478941895F89429
:1004100078941895F89478941895F8947894189599
:10042000F89478941895F89478941895F8947894AA
:100430001895F89478941895F89478941895F894F9
:1004400078941895F89478941895F8947894189569
:10045000F89478941895F89478941895F89478947A
:100460001895F89478941895F89478941895F894C9
:1004700078941895F89478941895F8947894189539
:10048000F89478941895F89478941895F89478944A
:100490001895F89478941895F89478941895F89499
:1004A00078941895F89478941895F8947894189509
:1004B000F89478941895F89478941895F89478941A
:1004C0001895F89478941895F89478941895F89469
:1004D00078941895F89478941895F89478941895D9
:1004E000F89478941895F89478941895F8947894EA
:1004F0001895F89478941895F89478941895F89439
:1005000078941895F89478941895F89478941895A8
:100510000FEF0DBF01E20EBF9EE39093B8007894F9
:100520000E94C9000E94CF000E94D6000E94DB00FA
:100530000E94E0000F9307E60F93002F0E949401A2
:0A0540000F910E94B6010F91FFCF4A
:00000001FF
